:1000000000400020210C0000610C0000630C000087
:1000100000000000000000000000000000000000E0
:10002000000000000000000000000000650C00005F
:100030000000000000000000670C0000690C0000D8
:100040006B0C00006B0C00006B0C00006B0C0000D4
:100050006B0C0000000000006B0C00006B0C00003B
:100060006B0C00006B0C00006B0C00006B0C0000B4
:100070006B0C00006B0C00006B0C00006B0C0000A4
:100080006B0C00006B0C00006B0C00006B0C000094
:100090006B0C00006B0C00006B0C00006B0C000084
:1000A0006B0C00006B0C0000000000000000000062
:1000B0000000000000000000000000000000000040
:1000C00010B5064C2378002B07D1054B002B02D02E
:1000D000044800E000BF0123237010BD3404002059
:1000E0000000000068100000044B10B5002B03D086
:1000F0000349044800E000BF10BDC04600000000F6
:100100003804002068100000144B002B00D1124B63
:100110009D46402292029A1A924600218B460F4633
:100120001148124A121A00F045FE0D4B002B00D068
:1001300098470C4B002B00D098470020002104006A
:100140000D000B4800F0E8FD00F012FE2000290031
:1001500000F010F800F0E8FD00000800004000206A
:1001600000000000000000003404002050040020C3
:10017000490D000090B589B002AF00F031F800F0F1
:1001800013FB00F08FF800F087FA3B1D180000F019
:100190009DFA3B1D1B683221180000F067FD03002B
:1001A0007B613B1D5B683221180000F05FFD03009E
:1001B0003B613A697B691100180000F019FB3B1D97
:1001C0001A683B1D5C683B1D9B680349034800930C
:1001D000230000F011FAD8E7D40F00005902000004
:1001E00080B500AFA023DA05EC23DB000121D1505C
:1001F000A023DB05124A002199501249A123DB00FC
:1002000001225242CA500F49A223DB00012252426E
:10021000CA500C4A0C4B1821D1500A4A0B4B1921D9
:10022000D150084A0A4B0B49D150064AA023DB00A3
:100230000421D150034B01221A60C046BD4680BD47
:1002400064070000002000400C05000014050000B9
:10025000240500000050270080B582B000AF0200E6
:10026000FB1D1A700D4B01229A600C49FB1D1B7877
:100270000B4A8B50C046094A8E235B00D358002B93
:10028000F9D0064A8E235B000021D150034B012296
:10029000DA60C046BD4602B080BDC04600200040C6
:1002A0001C05000080B500AFA023DA05E023DB00C9
:1002B0001649D150A023DA05EF23DB001349D150B2
:1002C000134A84235B000021D150114A8E235B0026
:1002D0000021D1500E4A92235B000021D1500C4ADC
:1002E000A123DB000021D150094A0A4B1E21D15025
:1002F0000749094ACC235B048B50054AA023DB0045
:100300000521D150C046BD4680BDC0460C06000048
:10031000003000400C0500002405000090B587B0B7
:1003200000AFBA607B600F243B19021C1A700E20CC
:100330003B180A1C1A7032493B191A78B123DB00AA
:10034000CA502F4B01229A602D4A8E235B00002158
:10035000D1502B493B181B782A4A8B50C046284A5B
:100360008E235B00D358002BF9D000237B6103E080
:10037000C0467B6901337B617B69092BF8DD204A2C
:1003800084235B000021D1501D4B01221A60002301
:100390003B6117E0C0461A4A84235B00D358002B08
:1003A000F9D0174A84235B000021D150144AA323BB
:1003B000DB00D1583B697A68D318CAB21A703B691E
:1003C00001333B61BB68013B3A699A42E2DB0C4B6B
:1003D00001225A61C0460A4A84235B00D358002B8D
:1003E000F9D0074AA323DB00D158BB68013B7A68E8
:1003F000D318CAB21A70C046BD4607B090BDC046F9
:10040000003000401C05000090B587B000AFBA6016
:100410007B600F243B19021C1A700E203B180A1C2B
:100420001A701F493B191A78B123DB00CA501C4BC4
:1004300001229A601A4A8E235B000021D15018498C
:100440003B181B78174A8B50C046154A8E235B0019
:10045000D358002BF9D000237B6116E0104A8E237D
:100460005B000021D1507B697A68D3181B780C4A55
:1004700019000C4BD150C046094A8E235B00D3585B
:10048000002BF9D07B6901337B617A69BB689A42A2
:10049000E4DB034B00225A61C046BD4607B090BD65
:1004A000003000401C05000080B586B000AF7860C9
:1004B00039603B68002B03D17B683020984755E0BA
:1004C00000237B6100233B610023FB603B68002B22
:1004D0001FDA0123FB603B685B423B6019E03A692D
:1004E00013009B009B185B003B613B680A211800CE
:1004F00000F006FC0B001A003B699B183B613B684F
:100500000A21180000F0B2FB03003B607B69013355
:100510007B613B68002BE2D1FB68002B19D07B6824
:100520002D20984715E03B690A21180000F0E8FBF0
:100530000B00DBB23033DAB27B68100098473B69BE
:100540000A21180000F092FB03003B617B69013B2C
:100550007B613B69002BE6D105E07B683020984742
:100560007B69013B7B617B69002BF6D1BD4606B000
:1005700080BD80B584B000AF78600023FB600EE0E2
:10058000FA6813009B009B185B00FB607B681B787C
:10059000303BFA68D318FB607B6801337B607B6873
:1005A0001B78642BECD1FB681800BD4604B080BDFD
:1005B00080B584B000AF78607B68002B01D1012347
:1005C00016E00023FB607B68002B0DDAFB6801332B
:1005D000FB6009E0FB680133FB607B680A211800BF
:1005E00000F044FB03007B607B68002BF2D1FB68CA
:1005F0001800BD4604B080BD0EB480B589B000AF10
:1006000078603023FB18FB60FB6ABB6139E0BB6993
:100610001B78252B05D0BB691A787B68100098479A
:100620002CE0FB681A1DFA601B687B61BB69013313
:10063000BB61BB691800FFF79CFF03003B617B694E
:100640001800FFF7B5FF0300FB6102E0BB6901334F
:10065000BB61BB691B78642BF8D105E07B68202067
:100660009847FB690133FB61FA693B699A42F5DB04
:100670007A697B6811001800FFF716FFBB69013328
:10068000BB61BB691B78002BC1D1C046BD4609B018
:1006900080BC08BC03B0184780B582B000AFFB1D1A
:1006A00057221A70FB1D012220211920FFF7ACFEF2
:1006B000FB1D08221A70FB1D012223211920FFF7C0
:1006C000A3FEC046BD4602B080BD000090B587B015
:1006D00000AF78600C243B190622A8211920FFF7EF
:1006E0001DFE2200BB185B781B02BA181278134358
:1006F0001A1116217B181A807B181B881A00802378
:100700001B01134005D07B187A18128825490A432B
:100710001A800C22BB18DB781B02BA18927813439C
:100720001A1114217B181A807B181B881A00802349
:100730001B01134005D07B187A18128819490A4307
:100740001A800C22BB185B791B02BA18127913436A
:100750001A1112217B181A807B181B881A0080231B
:100760001B01134005D07B187A1812880D490A43E3
:100770001A801623FB1800229A5E7B681A607B6839
:1007800004331422BA180021525E1A607B680833C1
:100790001222BA180021525E1A60C046BD4607B048
:1007A00090BDC04600F0FFFF80B582B000AF0423CB
:1007B0007B6013E001227B689A401100A023DA05D8
:1007C000A323DB00D15001227B689A40A023DB05E4
:1007D0001100064A99507B6801337B607B680F2BC0
:1007E000E8DDC046BD4602B080BDC0460C05000035
:1007F00090B587B000AF7860396000F029F8082420
:100800003B197A681A603B193A685A603B1918001C
:1008100000F034F82200BB181B687B61BB185B68D2
:100820003B6101227B699A40A023DB051100074A46
:10083000995001223B699A401100A023DA05A123B7
:10084000DB00D150C046BD4607B090BD0C0500008E
:1008500080B500AFA023DB050649E02212025A5002
:10086000A023DA05A123DB000349D150C046BD46D1
:1008700080BDC0460C050000F01F000080B586B0AA
:1008800000AF78607B681B687B617B685B683B615D
:100890007B69022B02DD02237B6105E07B69023369
:1008A00002DA02235B427B613B69022B02DD0223F9
:1008B0003B6105E03B69023302DA02235B423B61A4
:1008C0003B690233042B00D9BEE09A00644BD31875
:1008D0001B689F467B690233042B00D9ABE09A006A
:1008E000604BD3181B689F460623FB600F23BB6039
:1008F00013E00A23FB600E23BB600EE00423FB60C1
:100900000F23BB6009E00923FB600E23BB6004E0FA
:100910000523FB600F23BB60C0468CE07B6902337C
:10092000042B00D989E09A004F4BD3181B689F46CF
:100930000B23FB600D23BB6013E00A23FB600D2338
:10094000BB600EE00923FB600D23BB6009E00823B8
:10095000FB600D23BB6004E00723FB600D23BB603D
:10096000C0466AE07B690233042B68D89A003F4B8B
:10097000D3181B689F460523FB600E23BB6013E062
:100980000C23FB600D23BB600EE00623FB600E23EF
:10099000BB6009E00C23FB600F23BB6004E0042371
:1009A000FB600E23BB60C04649E07B690233042B29
:1009B00047D89A002E4BD3181B689F460723FB602D
:1009C0000F23BB6013E00823FB600F23BB600EE026
:1009D0000923FB600F23BB6009E00A23FB600F23A0
:1009E000BB6004E00B23FB600F23BB60C04628E024
:1009F0007B690233042B26D89A001E4BD3181B6840
:100A00009F460423FB600D23BB6013E00723FB60BC
:100A10000E23BB600EE00523FB600D23BB6009E0E5
:100A20000823FB600E23BB6004E00623FB600D235C
:100A3000BB60C04607E0C04606E0C04604E0C046D2
:100A400002E0C04600E0C0467B68FA681A607B6836
:100A50000433BA681A60C046BD4606B080BDC046C1
:100A6000EC0F00000010000014100000281000001F
:100A70003C1000005010000080B500AF00F036F8C8
:100A8000031E06D0134B144A1A60144B8022120224
:100A90001A6000F06BF8031E05D08023DA05C1232D
:100AA000DB000121D15000F087F8031E0ED00C4B63
:100AB0001B68012B07D00A4B0A4A1A60C046084B34
:100AC0001B68012BFBD1084BC0221A60C046BD46F3
:100AD00080BDC04604050040DFFF07C0186C004021
:100AE00000EC06407593000014EC064080B500AFA2
:100AF0001A4B1B68FF221340012B2AD1184B1B688D
:100B00000F22134025D1174B1B68F022134006D14A
:100B1000154B1B68F022134001D101231AE0114B41
:100B20001B68F0221340102B06D10F4B1B68F022DC
:100B3000134001D101230DE00A4B1B68F022134042
:100B4000302B06D1084B1B68F022134001D1012342
:100B500000E000231800BD4680BDC046E00F00F055
:100B6000E40F00F0E80F00F0EC0F00F080B500AFEC
:100B70000D4B1B68FF221340012B11D10B4B1B683F
:100B80000F2213400CD10A4B1B68F0221340402B5C
:100B900006D1084B1B68F022134001D1012300E06D
:100BA00000231800BD4680BDE00F00F0E40F00F008
:100BB000E80F00F0EC0F00F080B500AF144B1B689D
:100BC000FF221340012B1ED1124B1B680F22134032
:100BD00019D1114B1B68F0221340A02B06D10F4BEB
:100BE0001B68F022134001D101230DE00A4B1B6862
:100BF000F0221340D02B06D1084B1B68F022134083
:100C000001D1012300E000231800BD4680BDC0468D
:100C1000E00F00F0E40F00F0E80F00F0EC0F00F040
:100C200003210A4802680A430260094802680A432D
:100C300002600849084A094B9B1A03DD043BC85867
:100C4000D050FBDCFFF718FFFFF75EFA24050040E9
:100C500054050040741000000000002034040020FF
:100C6000FEE7FEE7FEE7FEE7FEE7FEE7002941D0EC
:100C700010B4041C4C40A44601230022002900D5D6
:100C80004942002800D5404288422CD30124240741
:100C9000A14204D2814202D209011B01F8E7E4001B
:100CA000A14204D2814202D249005B00F8E78842A7
:100CB00001D3401A1A434C08A04202D3001B5C081F
:100CC00022438C08A04202D3001B9C082243CC087C
:100CD000A04202D3001BDC082243002803D01B09DA
:100CE00001D00909E3E7101C6446002C00D54042FE
:100CF00010BC704701B5002000F00CF802BDC046E2
:100D00000029F7D003B5FFF7B3FF0EBC4243891AA1
:100D10001847C0467047C04610B5010000230022A6
:100D2000002000F09BF810BD10B50021040000F079
:100D3000E5F8044B1868C36B002B00D098472000DF
:100D400000F03AF96410000070B5074D074C641BC1
:100D5000A41005D0013CA300EB589847002CF9D112
:100D600000F032F970BDC046300400203404002089
:100D700070B50C4D0C4E761BB61005D0002408CD76
:100D800001349847A642FAD100F018F9074D084EF1
:100D9000761BB61005D0002408CD01349847A64232
:100DA000FAD170BD28040020280400202804002067
:100DB00030040020F0B5050083074AD0541E002AF5
:100DC00044D0CEB20300032202E00135013C3DD302
:100DD00001332E701342F8D1032C2FD9FF220A4081
:100DE000150215432A0415430F2C35D92700103F4F
:100DF0003F093E01B4461E001A00103666441560D5
:100E000055609560D5601032B242F8D10F260C22A1
:100E100001373F012640DB193700224217D03E1F21
:100E2000B608B400A4461A001C1D644420C2A242A5
:100E3000FCD103240136B6009B193C40002C05D0A0
:100E4000C9B21C19197001339C42FBD1F0BD3400AA
:100E5000F4E714000300BFE72700E0E7F0B5C6465B
:100E600000B51F4C82B024680194A424019D640045
:100E70002D59002D2BD06C681F2C2EDC002809D199
:100E80000020631C0234A4006B60615102B004BCFA
:100E90009046F0BD8827A600AE19F2510137FF3702
:100EA000BC460122AC446746A2403F6890461743C7
:100EB0006246176084277F00F3510228E0D12B009F
:100EC00040468D33FF331A6810431860D8E7019D00
:100ED000019E4D35FF353551CDE701204042D5E724
:100EE00064100000034B10B5002B02D00248FFF73E
:100EF00013FF10BD00000000490D0000F0B557467B
:100F0000DE464E4645462B4BE0B51B680F009A4621
:100F100083B00190A42352465B00D658002E32D0F5
:100F20007468651E2FD4C422520091460134A40077
:100F30003419B144984602E0043C013D23D3002F0C
:100F400004D080235B00E358BB42F5D1736822686C
:100F5000013BAB4229D000232360002AECD0736808
:100F600049469B460123AB400968194212D190477C
:100F700073685B45CED1534642469B58B342C9D1B4
:100F8000043C013DDBD203B03CBC90469946A246EE
:100F9000AB46F0BD300080218D30FF3000686158D5
:100FA000184204D101989047E2E77560D5E7080040
:100FB0009047DDE764100000FEE7C046F8B5C04684
:100FC000F8BC08BC9E467047F8B5C046F8BC08BCE3
:100FD0009E467047583A2025366420593A202536D7
:100FE00064205A3A202536640A0D0000D408000017
:100FF0001C09000064090000AA090000F0090000B3
:10100000E8080000F2080000FC08000006090000E3
:1010100010090000300900003A09000044090000EE
:101020004E09000058090000760900008009000000
:101030008A090000940900009E090000BC09000014
:10104000C6090000D0090000DA090000E409000028
:10105000020A00000C0A0000160A0000200A000024
:0C1060002A0A0000000000200000000030
:08106C009CF0FF7F0100000071
:1010740000000000EC02002054030020BC03002008
:10108400000000000000000000000000000000005C
:10109400000000000000000000000000000000004C
:1010A400000000000000000000000000000000003C
:1010B400000000000000000000000000000000002C
:1010C400000000000000000000000000000000001C
:1010D400000000000000000000000000000000000C
:1010E40000000000000000000000000000000000FC
:1010F40000000000000000000000000000000000EC
:1011040000000000000000000000000000000000DB
:1011140000000000000000000100000000000000CA
:101124000E33CDAB34126DE6ECDE05000B0000008F
:1011340000000000000000000000000000000000AB
:10114400000000000000000000000000000000009B
:10115400000000000000000000000000000000008B
:10116400000000000000000000000000000000007B
:101494000000000000000000E50E0000E90000006C
:0414A400C100000083
:0400000300000C21CC
:00000001FF
